:100000000C942A000C94140F0C94470F0C94470086
:100010000C9447000C9447000C947F0A0C94E6095A
:100020000C94190A0C944C0A0C94380B0C946B0B1E
:100030000C94310C0C94EB060C941E070C94510795
:100040000C9424140C9447000C9447000C945D0D00
:100050000C94470011241FBECFE5D8E0DEBFCDBF12
:1000600010E0A0E6B0E0E6EEFCE602C005900D92DE
:10007000A63CB107D9F711E0A6ECB0E001C01D9293
:10008000A630B107E1F70E9445350C9471360C9407
:100090000000EF92FF920F931F937B018C0120E0F1
:1000A00030E040E05FE40E94490388238CF0C801FF
:1000B000B70120E030E040E05FE40E94C1010E940F
:1000C000A9039B01AC01205030404040504806C07D
:1000D000C801B7010E94A9039B01AC01B901CA0183
:1000E0001F910F91FF90EF900895A0E0B0E0EBE733
:1000F000F0E00C943A36DC012B01FA019C9192302D
:1001000008F439C1EB018881823008F433C194309E
:1001100069F4843009F02FC111969C91119789815F
:10012000981709F428C1A5EAB0E025C1843009F484
:1001300021C18230A9F4923009F01DC19A01AD01AC
:1001400088E0EA010990AE01E90109929E0181501F
:10015000C1F7E201898111969C918923818308C1AD
:10016000923009F407C112962D903C901397EB0141
:100170008A819B811496AD90BD90CD90DC901797AD
:10018000EC80FD800E811F819101281B390BB90184
:1001900037FF04C066277727621B730B6032710537
:1001A0000CF061C0121613066CF537014801062EDB
:1001B00004C096948794779467940A94D2F721E0C8
:1001C00030E040E050E004C0220F331F441F551FB1
:1001D0006A95D2F721503040404050402E213F21B7
:1001E00040235123211531054105510521F021E01E
:1001F00030E040E050E079018A01E628F72808293C
:1002000019293CC0232BD1F1260E371E350146019A
:10021000062E04C096948794779467940A94D2F734
:1002200021E030E040E050E004C0220F331F441FC3
:10023000551F6A95D2F721503040404050402A2146
:100240003B214C215D21211531054105510521F04E
:1002500021E030E040E050E059016A01A628B728CB
:10026000C828D9280BC0821593052CF01C01AA249C
:10027000BB24650103C0EE24FF24870111969C91E5
:10028000D20111968C91981709F445C0992339F041
:10029000A80197012A193B094C095D0906C0A6016E
:1002A00095012E193F09400B510B57FD08C01182D3
:1002B0003382228224833583468357831DC081E0A5
:1002C00081833382228288279927DC01821B930B4A
:1002D000A40BB50B84839583A683B7830DC0220F2F
:1002E000331F441F551F24833583468357838281E0
:1002F000938101979383828324813581468157813D
:10030000DA01C9010197A109B1098F5F9F4FAF4F72
:10031000BF4328F30BC0918333822282EA0CFB1C7B
:100320000C1D1D1DE482F5820683178383E0808304
:10033000248135814681578157FF1AC0C901AA27F8
:1003400097FDA095BA2F81709070A070B0705695EF
:10035000479537952795822B932BA42BB52B848318
:100360009583A683B7838281938101969383828349
:10037000DF0101C0D201CD01CDB7DEB7E2E10C94BF
:100380005636A0E2B0E0E7ECF1E00C944636698323
:100390007A838B839C832D833E834F835887E9E048
:1003A000EE2EF12CEC0EFD1ECE010196B7010E943F
:1003B000D2048E010F5E1F4FCE010596B8010E9438
:1003C000D2048A8991E089278A8BC701B801AE01DE
:1003D000475E5F4F0E9475000E94FD03A096E6E015
:1003E0000C946236A0E2B0E0E8EFF1E00C944636FF
:1003F00069837A838B839C832D833E834F835887C5
:10040000F9E0EF2EF12CEC0EFD1ECE010196B701A6
:100410000E94D2048E010F5E1F4FCE010596B801D7
:100420000E94D204C701B801AE01475E5F4F0E942F
:1004300075000E94FD03A096E6E00C946236A0E2EF
:10044000B0E0E5E2F2E00C943A3669837A838B837C
:100450009C832D833E834F835887CE010196BE0136
:10046000675F7F4F0E94D204CE010596BE016F5E8A
:100470007F4F0E94D2049985923088F0898982301A
:10048000C8F0943019F4823051F404C0843029F457
:10049000923081F485EA90E0C6C0923049F420E0C1
:1004A0009A858A89981321E02A87CE010996BBC0D4
:1004B000823049F420E09A858A89981321E02A8BBA
:1004C000CE014196B0C02D843E844F8458886D88FB
:1004D0007E888F88988CEE24FF248701AA24BB2471
:1004E000650140E050E060E070E0E0E0F0E0C10174
:1004F00081709070892BE9F0E60CF71C081D191D1E
:100500009A01AB012A0D3B1D4C1D5D1D80E090E062
:10051000A0E0B0E0E614F7040805190520F481E036
:1005200090E0A0E0B0E0BA01A901480F591F6A1F8E
:100530007B1FAA0CBB1CCC1CDD1C97FE08C081E0F5
:1005400090E0A0E0B0E0A82AB92ACA2ADB2A3196B6
:10055000E032F10549F0660C771C881C991C569412
:10056000479437942794C3CFFA85EA892B893C892D
:100570008B859C85280F391F2E5F3F4F17C0CA01FE
:1005800081709070892B61F016950795F794E79428
:1005900080E090E0A0E0B0E8E82AF92A0A2B1B2BC3
:1005A00076956795579547952F5F3F4F77FDE7CF36
:1005B0000CC0440F551F661F771F17FD4160EE0CDE
:1005C000FF1C001F111F21503040403090E05907A0
:1005D00090E0690790E4790760F32B8F3C8FDB0193
:1005E000CA018F779070A070B07080349105A1051A
:1005F000B10561F447FD0AC0E114F10401051105DC
:1006000029F0405C5F4F6F4F7F4F40781A8EFE1786
:1006100011F081E08A8F4D8F5E8F6F8F78A383E01A
:10062000898FCE0149960E94FD03A096E2E10C94C9
:100630005636A8E1B0E0EFE1F3E00C94463669836A
:100640007A838B839C832D833E834F83588789E0F5
:10065000E82EF12CEC0EFD1ECE010196B7010E9492
:10066000D2048E010F5E1F4FCE010596B8010E9485
:10067000D2048985823040F08989823028F0C70110
:10068000B8010E944A0501C08FEF6896E6E00C941D
:100690006236A8E1B0E0EFE4F3E00C9446366983FB
:1006A0007A838B839C832D833E834F83588789E095
:1006B000E82EF12CEC0EFD1ECE010196B7010E9432
:1006C000D2048E010F5E1F4FCE010596B8010E9425
:1006D000D2048985823040F08989823028F0C701B0
:1006E000B8010E944A0501C08FEF6896E6E00C94BD
:1006F0006236A8E1B0E0EFE7F3E00C944636698398
:100700007A838B839C832D833E834F83588789E034
:10071000E82EF12CEC0EFD1ECE010196B7010E94D1
:10072000D2048E010F5E1F4FCE010596B8010E94C4
:10073000D2048985823040F08989823028F0C7014F
:10074000B8010E944A0501C081E06896E6E00C9479
:100750006236ACE0B0E0EFEAF3E00C944A3669832D
:100760007A838B839C83CE010196BE016B5F7F4FA2
:100770000E94D2048D81823061F1823050F1843048
:1007800021F48E81882351F12EC02F81388537FDC9
:1007900020C06E812F3131051CF06623F9F023C093
:1007A0008EE190E0821B930B29853A854B855C8511
:1007B00004C056954795379527958A95D2F76623B5
:1007C000B1F050954095309521953F4F4F4F5F4F79
:1007D0000EC020E030E040E050E009C02FEF3FEFD6
:1007E0004FEF5FE704C020E030E040E050E8B9019F
:1007F000CA012C96E2E00C946636DF92EF92FF92EB
:100800000F931F93FC01E480F58006811781D1804E
:100810008081823048F480E090E0A0E1B0E0E82AF6
:10082000F92A0A2B1B2BA5C0843009F49FC0823003
:1008300021F4EE24FF24870105C0E114F104010531
:10084000110519F4E0E0F0E096C0628173819FEF3A
:10085000623879070CF05BC022E83FEF261B370BAC
:100860002A3131052CF020E030E040E050E02AC091
:10087000B801A701022E04C0769567955795479554
:100880000A94D2F781E090E0A0E0B0E004C0880FC5
:10089000991FAA1FBB1F2A95D2F70197A109B10979
:1008A0008E219F21A023B1230097A105B10521F03E
:1008B00081E090E0A0E0B0E09A01AB01282B392B59
:1008C0004A2B5B2BDA01C9018F779070A070B07052
:1008D00080349105A105B10539F427FF09C0205CDA
:1008E0003F4F4F4F5F4F04C0215C3F4F4F4F5F4F13
:1008F000E0E0F0E02030A0E03A07A0E04A07A0E402
:100900005A0710F0E1E0F0E079018A0127C0603871
:10091000710564F5FB01E158FF4FD801C7018F77DE
:100920009070A070B07080349105A105B10539F4C4
:10093000E7FE0DC080E490E0A0E0B0E004C08FE3EB
:1009400090E0A0E0B0E0E80EF91E0A1F1B1F17FFA1
:1009500005C016950795F794E794319687E01695AC
:100960000795F794E7948A95D1F705C0EE24FF2404
:100970008701EFEFF0E06E2F679566276795902F60
:100980009F77D794DD24D7948E2F8695492F462BB9
:10099000582F5D29B701CA011F910F91FF90EF9069
:1009A000DF900895FC01DB01408151812281622F9B
:1009B0006F7770E0221F2227221F9381892F880FD3
:1009C000822B282F30E0991F9927991F11969C930D
:1009D000119721153105A9F54115510561057105DD
:1009E00011F482E037C082E89FEF13969C938E93B8
:1009F00012979A01AB0167E0220F331F441F551F66
:100A00006A95D1F783E08C930DC0220F331F441FEA
:100A1000551F12968D919C911397019713969C9355
:100A20008E931297203080E0380780E0480780E4FA
:100A3000580758F314962D933D934D935C93179755
:100A400008952F3F310579F4411551056105710570
:100A500019F484E08C93089564FF03C081E08C93C3
:100A600012C01C9210C02F57304013963C932E9307
:100A7000129783E08C9387E0440F551F661F771F02
:100A80008A95D1F7706414964D935D936D937C9322
:100A9000179708951F93DC01FB019C91923008F495
:100AA00047C08081823008F443C0943051F41196DD
:100AB0001C91843099F58181682F70E0611B710968
:100AC0003FC0843021F0923031F48230B9F181811D
:100AD000882389F12DC011961C9111978230F1F075
:100AE00081811817D9F412962D913C911397828128
:100AF00093818217930794F028173907BCF0149656
:100B00008D919D910D90BC91A02D248135814681C0
:100B10005781281739074A075B0718F4112341F05A
:100B20000AC082179307A407B50740F4112319F0F0
:100B300061E070E005C06FEF7FEF02C060E070E041
:100B4000CB011F910895DF93CF93CDB7DEB70E94FD
:100B500084070E94900D0E94A008CF91DF91089514
:100B6000DF93CF93CDB7DEB727970FB6F894DEBFEC
:100B70000FBECDBF89834A835B836C837D833F83B4
:100B80002E838981282F30E0C901880F991F820F99
:100B9000931F0196880F991FFC01E351FF4F8A8133
:100BA0009B81AC81BD8180839183A283B383898142
:100BB000282F30E04E815F81C901880F991F820F75
:100BC000931F880F991FFC01E351FF4F518340830E
:100BD00027960FB6F894DEBF0FBECDBFCF91DF9141
:100BE0000895EF92FF920F931F93DF93CF930F928D
:100BF000CDB7DEB719828091C6009091C700A09151
:100C0000C800B091C9000196A11DB11D8093C60016
:100C10009093C700A093C800B093C900198238C050
:100C2000E090C600F090C7000091C8001091C90084
:100C30008981282F30E0C901880F991F820F931FE7
:100C40000196880F991FFC01E351FF4F20813181EC
:100C500042815381C801B7010E94FD35DC01CB01FF
:100C60000097A105B10589F48981282F30E0C901D9
:100C7000880F991F820F931F880F991FFC01E35162
:100C8000FF4F0190F081E02D099589818F5F898365
:100C90008981833028F20F90CF91DF911F910F91BE
:100CA000FF90EF900895DF93CF93CDB7DEB784E246
:100CB00094EF0E94600981EF95E00E94A409CF9112
:100CC000DF910895DF93CF93CDB7DEB7E9E2F0E08F
:100CD00087E68083AAE2B0E0EAE2F0E08081886003
:100CE0008C93AAE2B0E0EAE2F0E0808180618C932C
:100CF000E0E4F0E086E88083CF91DF910895DF9310
:100D0000CF930F92CDB7DEB78983EAE2F0E080811E
:100D10008295869586958370882F90E0817090707B
:100D2000009799F3ECE2F0E0898180830F90CF91F6
:100D3000DF910895DF93CF93CDB7DEB7EAE2F0E01D
:100D400080818823DCF7ECE2F0E08081CF91DF91B5
:100D50000895DF93CF9300D0CDB7DEB79A83898310
:100D600089819A81009731F089819A819093CB0093
:100D70008093CA000F900F90CF91DF910895DF9379
:100D8000CF9300D0CDB7DEB79A83898389819A81CA
:100D9000009731F089819A819093CD008093CC00A7
:100DA0000F900F90CF91DF910895DF93CF9300D0F4
:100DB000CDB7DEB79A83898389819A81009731F014
:100DC00089819A819093CF008093CE000F900F90ED
:100DD000CF91DF9108951F920F920FB60F921124B9
:100DE0002F933F934F935F936F937F938F939F9333
:100DF000AF93BF93EF93FF93DF93CF93CDB7DEB75E
:100E00008091CA009091CB00009729F0E091CA0030
:100E1000F091CB000995CF91DF91FF91EF91BF91B8
:100E2000AF919F918F917F916F915F914F913F9182
:100E30002F910F900FBE0F901F9018951F920F9239
:100E40000FB60F9211242F933F934F935F936F939D
:100E50007F938F939F93AF93BF93EF93FF93DF9312
:100E6000CF93CDB7DEB78091CC009091CD000097A5
:100E700029F0E091CC00F091CD000995CF91DF9160
:100E8000FF91EF91BF91AF919F918F917F916F9162
:100E90005F914F913F912F910F900FBE0F901F9038
:100EA00018951F920F920FB60F9211242F933F9314
:100EB0004F935F936F937F938F939F93AF93BF9362
:100EC000EF93FF93DF93CF93CDB7DEB78091CE0042
:100ED0009091CF00009729F0E091CE00F091CF00E3
:100EE0000995CF91DF91FF91EF91BF91AF919F91C4
:100EF0008F917F916F915F914F913F912F910F90C3
:100F00000FBE0F901F901895DF93CF93CDB7DEB72C
:100F1000A1E3B0E0E1E3F0E0808180628C93A1E3A3
:100F2000B0E0E1E3F0E0808180618C93EFE4F0E0F9
:100F30008CE08083EEE4F0E08BE08083CF91DF9162
:100F40000895EF92FF920F931F93DF93CF9300D0FA
:100F500000D0CDB7DEB79A8389837C836B83809181
:100F6000D800833009F06FC0809100019091010199
:100F70009C0140E050E080910401882F90E0A0E0C7
:100F8000B0E0DC0199278827820F931FA41FB51FAB
:100F900024E630E040E050E0BC01CD010E94AB35DA
:100FA0007B018C0180910201909103019C0140E042
:100FB00050E0C801B7010E941F36DA01C9019C0147
:100FC000AD018091FF00882F90E0A0E0B0E0DC014F
:100FD00099278827820F931FA41FB51FE981FA81E3
:100FE00080839183A283B383809102019091030156
:100FF0009C0140E050E08091FF00882F90E0A0E04D
:10100000B0E0DC0199278827820F931FA41FB51F2A
:101010009C01AD01012E1AE0220F331F441F551F02
:101020001A95D1F7102D80E094E2A4EFB0E0BC0156
:10103000CD010E941F36DA01C901EB81FC8180835A
:101040009183A283B3830F900F900F900F90CF9155
:10105000DF911F910F91FF90EF900895DF93CF9351
:10106000CDB7DEB7809105018F5F80930501CF91E9
:10107000DF910895DF93CF93CDB7DEB78091D8008D
:101080008823F9F480E090E00E9432091092010177
:1010900010920001109204011092030110920201BB
:1010A0001092FF0010920501AEE4B0E0EEE4F0E033
:1010B00080818F7B8C938091D8008F5F8093D80044
:1010C0002EC08091D8008130B9F40E94F20890932C
:1010D0000101809300018091050180930401AEE439
:1010E000B0E0EEE4F0E0808180648C938091D800E1
:1010F0008F5F8093D80013C08091D800823079F43C
:101100000E94F208909303018093020180910501EF
:101110008093FF008091D8008F5F8093D800CF919B
:10112000DF910895DF93CF93CDB7DEB7A9E5B0E0A7
:10113000E9E5F0E0808180628C93CF91DF910895A2
:10114000DF93CF93CDB7DEB7A9E5B0E0E9E5F0E0F6
:10115000808180618C93CF91DF910895DF93CF934D
:10116000CDB7DEB7A9E5B0E0E9E5F0E080818860C1
:101170008C93CF91DF910895DF93CF93CDB7DEB7F6
:10118000A9E5B0E0E9E5F0E0808184608C93CF913F
:10119000DF910895DF93CF93CDB7DEB7E8E5F0E0B8
:1011A000808182958F708170CF91DF910895DF9358
:1011B000CF93CDB7DEB7E8E5F0E0808186958695E0
:1011C00086958170CF91DF910895DF93CF93CDB74E
:1011D000DEB7E8E5F0E08081869586958170CF9155
:1011E000DF910895DF93CF9300D0CDB7DEB7EDE464
:1011F000F0E08081882F90E0982F88279A83898358
:10120000ECE4F0E08081282F30E089819A81822B04
:10121000932B9A83898389819A810F900F90CF9124
:10122000DF910895DF93CF9300D0CDB7DEB7E7E429
:10123000F0E08081882F90E0982F88279A83898317
:10124000E6E4F0E08081282F30E089819A81822BCA
:10125000932B9A83898389819A810F900F90CF91E4
:10126000DF910895DF93CF9300D0CDB7DEB79A8397
:101270008983EDE4F0E089819A81892F9927808321
:10128000ECE4F0E0898180830F900F90CF91DF91A3
:101290000895DF93CF9300D0CDB7DEB79A838983CB
:1012A000E7E4F0E089819A81892F99278083E6E439
:1012B000F0E0898180830F900F90CF91DF910895A6
:1012C000DF93CF9300D0CDB7DEB79A838983EBE469
:1012D000F0E089819A81892F99278083EAE4F0E000
:1012E000898180830F900F90CF91DF910895DF93D4
:1012F000CF9300D0CDB7DEB79A838983E9E4F0E0DD
:1013000089819A81892F99278083E8E4F0E0898197
:1013100080830F900F90CF91DF910895DF93CF934B
:1013200000D0CDB7DEB79A83898389819A810097EF
:1013300031F089819A819093D1008093D0000F90F1
:101340000F90CF91DF910895DF93CF9300D0CDB769
:10135000DEB79A83898389819A81009731F08981E8
:101360009A819093D3008093D2000F900F90CF91E9
:10137000DF910895DF93CF9300D0CDB7DEB79A8386
:10138000898389819A81009731F089819A8190932C
:10139000D5008093D4000F900F90CF91DF910895E6
:1013A000DF93CF9300D0CDB7DEB79A83898389814D
:1013B0009A81009731F089819A819093D700809328
:1013C000D6000F900F90CF91DF9108951F920F924A
:1013D0000FB60F9211242F933F934F935F936F9308
:1013E0007F938F939F93AF93BF93EF93FF93DF937D
:1013F000CF93CDB7DEB78091D2009091D300009704
:1014000029F0E091D200F091D3000995CF91DF91BE
:10141000FF91EF91BF91AF919F918F917F916F91CC
:101420005F914F913F912F910F900FBE0F901F90A2
:1014300018951F920F920FB60F9211242F933F937E
:101440004F935F936F937F938F939F93AF93BF93CC
:10145000EF93FF93DF93CF93CDB7DEB78091D400A6
:101460009091D500009729F0E091D400F091D5003B
:101470000995CF91DF91FF91EF91BF91AF919F912E
:101480008F917F916F915F914F913F912F910F902D
:101490000FBE0F901F9018951F920F920FB60F92CC
:1014A00011242F933F934F935F936F937F938F9369
:1014B0009F93AF93BF93EF93FF93DF93CF93CDB7FA
:1014C000DEB78091D0009091D100009729F0E09193
:1014D000D000F091D1000995CF91DF91FF91EF916C
:1014E000BF91AF919F918F917F916F915F914F913C
:1014F0003F912F910F900FBE0F901F9018951F9244
:101500000F920FB60F9211242F933F934F935F9337
:101510006F937F938F939F93AF93BF93EF93FF93BB
:10152000DF93CF93CDB7DEB78091D6009091D700EF
:10153000009729F0E091D600F091D7000995CF915E
:10154000DF91FF91EF91BF91AF919F918F917F912B
:101550006F915F914F913F912F910F900FBE0F9020
:101560001F901895DF93CF93CDB7DEB7E3E5F0E09A
:101570008DE08083CF91DF910895DF93CF93CDB736
:10158000DEB7A9E5B0E0E9E5F0E0808182608C9308
:10159000CF91DF910895DF93CF93CDB7DEB7A9E563
:1015A000B0E0E9E5F0E0808181608C93CF91DF913C
:1015B0000895DF93CF93CDB7DEB7E8E5F0E0808103
:1015C00086958170CF91DF910895DF93CF93CDB74A
:1015D000DEB7E8E5F0E080818170CF91DF9108957A
:1015E000DF93CF930F92CDB7DEB78983E2E5F0E0CA
:1015F000898180830F90CF91DF910895DF93CF93FE
:101600000F92CDB7DEB78983ECE5F0E08981808366
:101610000F90CF91DF910895DF93CF9300D0CDB796
:10162000DEB79A83898389819A81009731F0898115
:101630009A819093DA008093D9000F900F90CF9108
:10164000DF910895DF93CF9300D0CDB7DEB79A83B3
:10165000898389819A81009731F089819A81909359
:10166000DC008093DB000F900F90CF91DF91089505
:101670001F920F920FB60F9211242F933F934F9307
:101680005F936F937F938F939F93AF93BF93EF93EA
:10169000FF93DF93CF93CDB7DEB78091D9009091C0
:1016A000DA00009729F0E091D900F091DA0009956D
:1016B000CF91DF91FF91EF91BF91AF919F918F916A
:1016C0007F916F915F914F913F912F910F900FBE3E
:1016D0000F901F9018951F920F920FB60F92112422
:1016E0002F933F934F935F936F937F938F939F932A
:1016F000AF93BF93EF93FF93DF93CF93CDB7DEB755
:101700008091DB009091DC00009729F0E091DB00F4
:10171000F091DC000995CF91DF91FF91EF91BF919E
:10172000AF919F918F917F916F915F914F913F9179
:101730002F910F900FBE0F901F901895DF93CF93AE
:10174000CDB7DEB7EDE2F0E084E38083AEE2B0E057
:10175000EEE2F0E080818E7F8C93A7E3B0E0E7E3D8
:10176000F0E0808180618C93A7E3B0E0E7E3F0E0F4
:10177000808180628C93A7E3B0E0E7E3F0E08081B2
:101780008F7B8C93A7E3B0E0E7E3F0E08081806893
:101790008C93ADE2B0E0EDE2F0E0808180648C9368
:1017A000CF91DF910895DF93CF930F92CDB7DEB73E
:1017B0008983EFE2F0E089818083EEE2F0E08081CE
:1017C0008823DCF70F90CF91DF910895DF93CF93BB
:1017D00000D00F92CDB7DEB789837B836A83EFE2B7
:1017E000F0E089818083EEE2F0E080818823DCF7FD
:1017F000EFE2F0E08081EA81FB8180830F900F901F
:101800000F90CF91DF910895DF93CF9300D0CDB7A4
:10181000DEB79A838983EEE2F0E080818823DCF7EB
:10182000EFE2F0E08081E981FA8180830F900F90F0
:10183000CF91DF910895DF93CF9300D0CDB7DEB77E
:101840009A83898389819A81009731F089819A816D
:101850009093DE008093DD000F900F90CF91DF9189
:1018600008951F920F920FB60F9211242F933F935A
:101870004F935F936F937F938F939F93AF93BF9398
:10188000EF93FF93DF93CF93CDB7DEB78091DD0069
:101890009091DE00009729F0E091DD00F091DE00EC
:1018A0000995CF91DF91FF91EF91BF91AF919F91FA
:1018B0008F917F916F915F914F913F912F910F90F9
:1018C0000FBE0F901F901895DF93CF93CDB7DEB763
:1018D000E0E2F0E081E08083A1E2B0E0E1E2F0E06C
:1018E00080818E7F8C93A1E2B0E0E1E2F0E0808124
:1018F0008D7F8C93CF91DF910895DF93CF93CDB7F8
:10190000DEB7A6E5B0E0E6E5F0E0808184608C9388
:10191000A6E5B0E0E6E5F0E0808180628C93A6E584
:10192000B0E0E6E5F0E0808180688C93E6E5F0E0E9
:1019300080818823DCF7CF91DF910895DF93CF93E7
:10194000CDB7DEB7A6E5B0E0E6E5F0E080818460E3
:101950008C93A6E5B0E0E6E5F0E0808180628C93B0
:10196000A6E5B0E0E6E5F0E0808180688C93E6E5EE
:10197000F0E080818823DCF7CF91DF910895DF9339
:10198000CF93CDB7DEB7A6E5B0E0E6E5F0E0808125
:1019900084608C93A6E5B0E0E6E5F0E080818061AC
:1019A0008C93A6E5B0E0E6E5F0E0808180688C935A
:1019B000E6E5F0E080818823DCF7CF91DF910895A0
:1019C000DF93CF930F92CDB7DEB78983E3E2F0E0E8
:1019D00089818083A6E5B0E0E6E5F0E0808184605F
:1019E0008C93A6E5B0E0E6E5F0E0808180688C931A
:1019F000E6E5F0E080818823DCF70F90CF91DF915E
:101A00000895DF93CF930F92CDB7DEB78983E3E2DA
:101A1000F0E089818083A6E5B0E0E6E5F0E0808132
:101A200084608C93A6E5B0E0E6E5F0E08081806814
:101A30008C93E6E5F0E080818823DCF70F90CF916E
:101A4000DF910895DF93CF9300D0CDB7DEB79A83AF
:101A50008983A6E5B0E0E6E5F0E0808184608C93C0
:101A6000A6E5B0E0E6E5F0E0808180688C93E6E5ED
:101A7000F0E080818823DCF7E3E2F0E08081E98117
:101A8000FA8180830F900F90CF91DF910895DF93BB
:101A9000CF9300D0CDB7DEB79A83898389819A81AD
:101AA000009731F089819A819093E0008093DF0064
:101AB0000F900F90CF91DF9108951F920F920FB664
:101AC0000F9211242F933F934F935F936F937F93C4
:101AD0008F939F93AF93BF93EF93FF93DF93CF9336
:101AE000CDB7DEB78091DF009091E000009729F03C
:101AF000E091DF00F091E0000995CF91DF91FF9137
:101B0000EF91BF91AF919F918F917F916F915F9175
:101B10004F913F912F910F900FBE0F901F901895EE
:101B2000DF93CF93CDB7DEB7AFE5B0E0EFE5F0E000
:101B3000808180688C93CF91DF910895DF93CF935C
:101B40000F92CDB7DEB789838981833000F5898113
:101B5000882341F4ABE5B0E0EBE5F0E08081806400
:101B60008C9315C08981813041F4ABE5B0E0EBE5A1
:101B7000F0E0808180688C930AC08981823039F4DA
:101B8000ABE5B0E0EBE5F0E0808180628C930F90F4
:101B9000CF91DF910895DF93CF9300D0CDB7DEB71B
:101BA00089838981833038F58981882359F4EAE56E
:101BB000F0E080818295869586958370982F91704C
:101BC0009A831BC08981813049F4EAE5F0E0808185
:101BD000982F991F9927991F9A830FC08981823066
:101BE00051F4EAE5F0E08081829586958770982F20
:101BF00091709A8302C08FEF8A838A810F900F9031
:101C0000CF91DF910895DF93CF9300D0CDB7DEB7AA
:101C100089836A838981833008F0BFC089818823E2
:101C200009F04DC08A81843008F0B7C08A818823CA
:101C300079F4A5E5B0E0E5E5F0E080818E7F8C9356
:101C4000A5E5B0E0E5E5F0E080818D7F8C93A5C04F
:101C50008A81813079F4A5E5B0E0E5E5F0E08081A6
:101C600081608C93A5E5B0E0E5E5F0E080818D7FB3
:101C70008C9393C08A81823079F4A5E5B0E0E5E5E4
:101C8000F0E0808181608C93A5E5B0E0E5E5F0E0CF
:101C9000808182608C9381C08A81833009F07DC00D
:101CA000A5E5B0E0E5E5F0E080818E7F8C93A5E5C9
:101CB000B0E0E5E5F0E0808182608C936EC08981C0
:101CC000813009F04CC08A81843008F066C08A8176
:101CD000882379F4A5E5B0E0E5E5F0E080818B7F2D
:101CE0008C93A5E5B0E0E5E5F0E08081877F8C93FB
:101CF00054C08A81813079F4A5E5B0E0E5E5F0E0F3
:101D0000808184608C93A5E5B0E0E5E5F0E080811A
:101D1000877F8C9342C08A81823079F4A5E5B0E058
:101D2000E5E5F0E0808184608C93A5E5B0E0E5E531
:101D3000F0E0808188608C9330C08A81833069F5BF
:101D4000A5E5B0E0E5E5F0E080818B7F8C93A5E52B
:101D5000B0E0E5E5F0E0808188608C931EC0898169
:101D60008230D9F48A81833019F08A818230A9F4D3
:101D70008A81823041F4A4E5B0E0E4E5F0E08081BE
:101D800080648C930AC08A81833039F4A4E5B0E082
:101D9000E4E5F0E080818F7B8C930F900F90CF91E2
:101DA000DF910895DF93CF9300D0CDB7DEB79A834C
:101DB000898389819A81009731F089819A819093F2
:101DC000E2008093E1000F900F90CF91DF91089592
:101DD000DF93CF9300D0CDB7DEB79A838983898113
:101DE0009A81009731F089819A819093E4008093E1
:101DF000E3000F900F90CF91DF910895DF93CF9381
:101E000000D0CDB7DEB79A83898389819A81009704
:101E100031F089819A819093E6008093E5000F90DC
:101E20000F90CF91DF9108951F920F920FB60F92EE
:101E300011242F933F934F935F936F937F938F93CF
:101E40009F93AF93BF93EF93FF93DF93CF93CDB760
:101E5000DEB78091E1009091E200009729F0E091D7
:101E6000E100F091E2000995CF91DF91FF91EF91B0
:101E7000BF91AF919F918F917F916F915F914F91A2
:101E80003F912F910F900FBE0F901F9018951F92AA
:101E90000F920FB60F9211242F933F934F935F939E
:101EA0006F937F938F939F93AF93BF93EF93FF9322
:101EB000DF93CF93CDB7DEB78091E3009091E4003C
:101EC000009729F0E091E300F091E4000995CF91AB
:101ED000DF91FF91EF91BF91AF919F918F917F9192
:101EE0006F915F914F913F912F910F900FBE0F9087
:101EF0001F9018951F920F920FB60F9211242F93D7
:101F00003F934F935F936F937F938F939F93AF9381
:101F1000BF93EF93FF93DF93CF93CDB7DEB780915D
:101F2000E5009091E600009729F0E091E500F0913E
:101F3000E6000995CF91DF91FF91EF91BF91AF91AD
:101F40009F918F917F916F915F914F913F912F91D1
:101F50000F900FBE0F901F901895DF93CF9300D076
:101F6000CDB7DEB789836A8389818430F8F48981AB
:101F7000882329F4EAE3F0E08A81808317C089810D
:101F8000813029F4E7E3F0E08A8180830FC0898102
:101F9000823029F4E4E3F0E08A81808307C08981FC
:101FA000833021F4E1E3F0E08A8180830F900F9089
:101FB000CF91DF910895DF93CF9300D0CDB7DEB7F7
:101FC00089836A8389818430F8F48981882329F49C
:101FD000EBE3F0E08A81808317C08981813029F4A6
:101FE000E8E3F0E08A8180830FC08981823029F4A0
:101FF000E5E3F0E08A81808307C08981833021F4A2
:10200000E2E3F0E08A8180830F900F90CF91DF911F
:102010000895DF93CF9300D0CDB7DEB78983898150
:10202000843000F58981882329F4E9E3F0E0808198
:102030008A831AC08981813029F4E6E3F0E0808147
:102040008A8312C08981823029F4E3E3F0E0808141
:102050008A830AC08981833029F4E0E3F0E080813B
:102060008A8302C08FEF8A838A810F900F90CF916D
:10207000DF910895DF93CF930F92CDB7DEB78983B9
:102080008981843058F58981882341F4ABE3B0E03D
:10209000EBE3F0E0808180958C9320C089818130D2
:1020A00041F4A8E3B0E0E8E3F0E0808180958C9310
:1020B00015C08981823041F4A5E3B0E0E5E3F0E0AA
:1020C000808180958C930AC08981833039F4A2E3A2
:1020D000B0E0E2E3F0E0808180958C930F90CF91A7
:1020E000DF910895DF93CF9300D00F92CDB7DEB785
:1020F00089836A834B838B81813009F075C0898124
:10210000843008F0ECC089818823C9F44AE350E0A8
:10211000AAE3B0E0EAE3F0E08081682F8A81282F0B
:1021200030E081E090E0022E02C0880F991F0A94EF
:10213000E2F7862B8C938C91FA018083D0C0898141
:102140008130C9F447E350E0A7E3B0E0E7E3F0E013
:102150008081682F8A81282F30E081E090E0022E74
:1021600002C0880F991F0A94E2F7862B8C938C91FA
:10217000FA018083B4C089818230C9F444E350E01D
:10218000A4E3B0E0E4E3F0E08081682F8A81282FA7
:1021900030E081E090E0022E02C0880F991F0A947F
:1021A000E2F7862B8C938C91FA01808398C0898109
:1021B000833009F094C041E350E0A1E3B0E0E1E3F3
:1021C000F0E08081682F8A81282F30E081E090E064
:1021D000022E02C0880F991F0A94E2F7862B8C9377
:1021E0008C91FA0180837BC08B81882309F077C0B2
:1021F0008981843008F073C089818823D1F44AE34F
:1022000050E0AAE3B0E0EAE3F0E08081682F8A8141
:10221000282F30E081E090E0022E02C0880F991F45
:102220000A94E2F7809586238C938C91FA0180833F
:1022300056C089818130D1F447E350E0A7E3B0E094
:10224000E7E3F0E08081682F8A81282F30E081E089
:1022500090E0022E02C0880F991F0A94E2F7809541
:1022600086238C938C91FA01808339C089818230D6
:10227000D1F444E350E0A4E3B0E0E4E3F0E0808193
:10228000682F8A81282F30E081E090E0022E02C082
:10229000880F991F0A94E2F7809586238C938C917E
:1022A000FA0180831CC089818330C9F441E350E086
:1022B000A1E3B0E0E1E3F0E08081682F8A81282F7C
:1022C00030E081E090E0022E02C0880F991F0A944E
:1022D000E2F7809586238C938C91FA0180830F908E
:1022E0000F900F90CF91DF910895DF93CF9300D09F
:1022F0000F92CDB7DEB789836A834B838B818130A0
:1023000009F061C08981843008F0C4C089818823C4
:10231000A1F4ABE3B0E0EBE3F0E08081482F8A81E9
:10232000282F30E081E090E0022E02C0880F991F34
:102330000A94E2F7842B8C93ADC089818130A1F49B
:10234000A8E3B0E0E8E3F0E08081482F8A81282FFD
:1023500030E081E090E0022E02C0880F991F0A94BD
:10236000E2F7842B8C9396C089818230A1F4A5E397
:10237000B0E0E5E3F0E08081482F8A81282F30E04B
:1023800081E090E0022E02C0880F991F0A94E2F7C4
:10239000842B8C937FC08981833009F07BC0A2E3BA
:1023A000B0E0E2E3F0E08081482F8A81282F30E01E
:1023B00081E090E0022E02C0880F991F0A94E2F794
:1023C000842B8C9367C08B81882309F063C089813B
:1023D000843008F05FC089818823A9F4ABE3B0E0C2
:1023E000EBE3F0E08081482F8A81282F30E081E004
:1023F00090E0022E02C0880F991F0A94E2F78095A0
:1024000084238C9347C089818130A9F4A8E3B0E08C
:10241000E8E3F0E08081482F8A81282F30E081E0D6
:1024200090E0022E02C0880F991F0A94E2F780956F
:1024300084238C932FC089818230A9F4A5E3B0E076
:10244000E5E3F0E08081482F8A81282F30E081E0A9
:1024500090E0022E02C0880F991F0A94E2F780953F
:1024600084238C9317C089818330A1F4A2E3B0E068
:10247000E2E3F0E08081482F8A81282F30E081E07C
:1024800090E0022E02C0880F991F0A94E2F780950F
:1024900084238C930F900F900F90CF91DF9108952C
:1024A000DF93CF9300D00F92CDB7DEB789836A83D5
:1024B0008981843008F058C08981882399F4E9E340
:1024C000F0E08081282F30E08A81882F90E0A901F8
:1024D00002C0559547958A95E2F7CA01582F517069
:1024E0005B8344C08981813099F4E6E3F0E0808128
:1024F000282F30E08A81882F90E0A90102C05595ED
:1025000047958A95E2F7CA01582F51705B832EC018
:102510008981823099F4E3E3F0E08081282F30E074
:102520008A81882F90E0A90102C0559547958A9528
:10253000E2F7CA01582F51705B8318C0898183303C
:1025400099F4E0E3F0E08081282F30E08A81882F41
:1025500090E0A90102C0559547958A95E2F7CA0116
:10256000582F51705B8302C08FEF8B838B810F904C
:102570000F900F90CF91DF910895DF93CF9300D00C
:10258000CDB7DEB789836A838981843008F05BC068
:1025900089818823A1F4ABE3B0E0EBE3F0E0808134
:1025A000482F8A81282F30E081E090E0022E02C07F
:1025B000880F991F0A94E2F784278C9344C089817D
:1025C0008130A1F4A8E3B0E0E8E3F0E08081482F97
:1025D0008A81282F30E081E090E0022E02C0880F2F
:1025E000991F0A94E2F784278C932DC08981823049
:1025F000A1F4A5E3B0E0E5E3F0E08081482F8A8113
:10260000282F30E081E090E0022E02C0880F991F51
:102610000A94E2F784278C9316C08981833099F459
:10262000A2E3B0E0E2E3F0E08081482F8A81282F26
:1026300030E081E090E0022E02C0880F991F0A94DA
:10264000E2F784278C930F900F90CF91DF9108953C
:10265000DF93CF93CDB7DEB7E6E2F0E087EA808381
:10266000A0E5B0E0E0E5F0E080818C9327E230E087
:10267000A7E2B0E0E7E2F0E0808181608C938C918A
:102680008F718066F9018083CF91DF910895DF9388
:10269000CF93CDB7DEB766970FB6F894DEBF0FBE07
:1026A000CDBFA6E2B0E0E6E2F0E0808180648C93EA
:1026B000E6E2F0E0808182958F70882F90E0817053
:1026C00090700097A9F380E090E0A0E2B1E48B87DE
:1026D0009C87AD87BE876B857C858D859E8520E038
:1026E00030E04AE755E40E941F02DC01CB018F83F2
:1026F0009887A987BA876F81788589859A8520E030
:1027000030E040E85FE30E94790388232CF481E005
:1027100090E09E838D833FC06F81788589859A85FF
:1027200020E03FEF4FE757E40E94190318164CF5DD
:102730006B857C858D859E8520E030E040E251E40C
:102740000E941F02DC01CB01BC01CD010E944900A7
:10275000DC01CB019E838D830FC080E991E09C83D7
:102760008B838B819C810197F1F79C838B838D8177
:102770009E8101979E838D838D819E81009769F74D
:1027800014C06F81788589859A850E944900DC0193
:10279000CB019E838D838D819E819A8389838981DC
:1027A0009A810197F1F79A838983E5E2F0E08081CD
:1027B000882F90E0A0E0B0E0880F991FAA1FBB1FF0
:1027C000880F991FAA1FBB1F8B8B9C8BAD8BBE8B59
:1027D0008B899C89AD89BE8928E833E140E050E0CF
:1027E000BC01CD010E94AB35DC01CB01072E7AE0A4
:1027F000B695A795979587957A95D1F7702D8F8780
:10280000988BA98BBA8B8F85988966960FB6F894AA
:10281000DEBF0FBECDBFCF91DF910895DF93CF9381
:1028200000D0CDB7DEB79A83898389819A810097DA
:1028300031F089819A819093E8008093E7000F90AE
:102840000F90CF91DF9108951F920F920FB60F92C4
:1028500011242F933F934F935F936F937F938F93A5
:102860009F93AF93BF93EF93FF93DF93CF93CDB736
:10287000DEB78091E7009091E800009729F0E091A1
:10288000E700F091E8000995CF91DF91FF91EF917A
:10289000BF91AF919F918F917F916F915F914F9178
:1028A0003F912F910F900FBE0F901F901895DF93BF
:1028B000CF93CDB7DEB782E062E041E00E947210B4
:1028C00082E062E041E00E947511CF91DF910895AE
:1028D000DF93CF93CDB7DEB782E062E040E00E94A5
:1028E0007511CF91DF910895DF93CF93CDB7DEB708
:1028F00082E067E041E00E94721082E067E041E020
:102900000E947511CF91DF910895DF93CF93CDB7DA
:10291000DEB782E067E040E00E947511CF91DF9161
:102920000895DF93CF93CDB7DEB783E063E041E056
:102930000E94721083E063E041E00E947511CF9124
:10294000DF910895DF93CF93CDB7DEB783E063E0E7
:1029500040E00E947511CF91DF910895DF93CF93EE
:10296000CDB7DEB780E063E041E00E94721080E006
:1029700063E041E00E947511CF91DF910895DF93EC
:10298000CF93CDB7DEB780E063E040E00E947511E1
:10299000CF91DF910895DF93CF93CDB7DEB76E97D8
:1029A0000FB6F894DEBF0FBECDBF8E8F1D8EF7C061
:1029B0000E94AE140E9457140E9474140E94911435
:1029C00080E090E0AAE7B3E4898F9A8FAB8FBC8F49
:1029D000698D7A8D8B8D9C8D20E030E04AE755E43F
:1029E0000E941F02DC01CB018D8B9E8BAF8BB88FB9
:1029F0006D897E898F89988D20E030E040E85FE323
:102A00000E94790388232CF481E090E09C8B8B8BCF
:102A10003FC06D897E898F89988D20E03FEF4FE719
:102A200057E40E94190318164CF5698D7A8D8B8D29
:102A30009C8D20E030E040E251E40E941F02DC0166
:102A4000CB01BC01CD010E944900DC01CB019C8B74
:102A50008B8B0FC080E991E09A8B898B89899A8949
:102A60000197F1F79A8B898B8B899C8901979C8BB5
:102A70008B8B8B899C89009769F714C06D897E893F
:102A80008F89988D0E944900DC01CB019C8B8B8B38
:102A90008B899C89988B8F878F8598890197F1F70F
:102AA000988B8F870E94BF140E94A2140E94681402
:102AB0000E94851480E090E0AAE7B3E48B879C87AE
:102AC000AD87BE876B857C858D859E8520E030E057
:102AD0004AE755E40E941F02DC01CB018F839887EF
:102AE000A987BA876F81788589859A8520E030E04B
:102AF00040E85FE30E94790388232CF481E090E0B2
:102B00009E838D833FC06F81788589859A8520E07B
:102B10003FEF4FE757E40E94190318164CF56B85F9
:102B20007C858D859E8520E030E040E251E40E9466
:102B30001F02DC01CB01BC01CD010E944900DC0178
:102B4000CB019E838D830FC080E991E09C838B83B2
:102B50008B819C810197F1F79C838B838D819E8172
:102B600001979E838D838D819E81009769F714C0A4
:102B70006F81788589859A850E944900DC01CB01A7
:102B80009E838D838D819E819A83898389819A8199
:102B90000197F1F79A8389838D8D8F5F8D8F9D8D3E
:102BA0008E8D981708F404CF6E960FB6F894DEBF9A
:102BB0000FBECDBFCF91DF910895DF93CF93CDB7F7
:102BC000DEB780E064E041E00E94721080E065E0E2
:102BD00041E00E94721080E066E041E00E947210C5
:102BE00080E067E041E00E94721081E062E041E035
:102BF0000E94721081E061E041E00E947210CF916A
:102C0000DF910895DF93CF93CDB7DEB781E061E028
:102C100041E00E947511CF91DF910895DF93CF932A
:102C2000CDB7DEB781E062E041E00E947511CF913F
:102C3000DF910895DF93CF93CDB7DEB781E061E0F8
:102C400040E00E947511CF91DF910895DF93CF93FB
:102C5000CDB7DEB781E062E040E00E947511CF9110
:102C6000DF910895DF93CF93CDB7DEB781E063E0C6
:102C700041E00E947511CF91DF910895DF93CF93CA
:102C8000CDB7DEB781E063E040E00E947511CF91DF
:102C9000DF910895DF93CF930F92CDB7DEB789838D
:102CA00089818295807F898380E069810E94DB0F22
:102CB0000F90CF91DF910895DF93CF930F92CDB70F
:102CC000DEB789830E94021689810E944A160E94FB
:102CD0001A160F90CF91DF910895DF93CF930F9243
:102CE000CDB7DEB789830E940E1689810E944A16ED
:102CF0000E9426160F90CF91DF910895DF93CF9316
:102D0000CDB7DEB72F970FB6F894DEBF0FBECDBF9D
:102D100081E060E040E00E94721081E060E00E948B
:102D20005012882309F47BC080E090E0A8ECB1E465
:102D30008B879C87AD87BE876B857C858D859E85BF
:102D400020E030E04AE755E40E941F02DC01CB019D
:102D50008F839887A987BA876F81788589859A85B7
:102D600020E030E040E85FE30E94790388232CF400
:102D700081E090E09E838D833FC06F817885898557
:102D80009A8520E03FEF4FE757E40E941903181699
:102D90004CF56B857C858D859E8520E030E040E29A
:102DA00051E40E941F02DC01CB01BC01CD010E9455
:102DB0004900DC01CB019E838D830FC080E991E047
:102DC0009C838B838B819C810197F1F79C838B8300
:102DD0008D819E8101979E838D838D819E81009739
:102DE00069F714C06F81788589859A850E944900AA
:102DF000DC01CB019E838D838D819E819A838983A3
:102E000089819A810197F1F79A83898381E060E053
:102E10000E945012882319F081E08F8701C01F861D
:102E20008F852F960FB6F894DEBF0FBECDBFCF9122
:102E3000DF910895DF93CF93CDB7DEB72F970FB60D
:102E4000F894DEBF0FBECDBF83E066E040E00E9495
:102E5000721083E066E00E945012882309F47BC060
:102E600080E090E0A8ECB1E48B879C87AD87BE87BB
:102E70006B857C858D859E8520E030E04AE755E4B2
:102E80000E941F02DC01CB018F839887A987BA8734
:102E90006F81788589859A8520E030E040E85FE39E
:102EA0000E94790388232CF481E090E09E838D8337
:102EB0003FC06F81788589859A8520E03FEF4FE795
:102EC00057E40E94190318164CF56B857C858D8597
:102ED0009E8520E030E040E251E40E941F02DC01C8
:102EE000CB01BC01CD010E944900DC01CB019E83D6
:102EF0008D830FC080E991E09C838B838B819C81C3
:102F00000197F1F79C838B838D819E8101979E832E
:102F10008D838D819E81009769F714C06F817885BC
:102F200089859A850E944900DC01CB019E838D83AF
:102F30008D819E819A83898389819A810197F1F796
:102F40009A83898383E066E00E945012882319F0F7
:102F500081E08F8701C01F868F852F960FB6F8946A
:102F6000DEBF0FBECDBFCF91DF910895DF93CF932A
:102F7000CDB7DEB72F970FB6F894DEBF0FBECDBF2B
:102F800083E062E040E00E94721083E062E00E9411
:102F90005012882309F47BC080E090E0A8ECB1E4F3
:102FA0008B879C87AD87BE876B857C858D859E854D
:102FB00020E030E04AE755E40E941F02DC01CB012B
:102FC0008F839887A987BA876F81788589859A8545
:102FD00020E030E040E85FE30E94790388232CF48E
:102FE00081E090E09E838D833FC06F8178858985E5
:102FF0009A8520E03FEF4FE757E40E941903181627
:103000004CF56B857C858D859E8520E030E040E227
:1030100051E40E941F02DC01CB01BC01CD010E94E2
:103020004900DC01CB019E838D830FC080E991E0D4
:103030009C838B838B819C810197F1F79C838B838D
:103040008D819E8101979E838D838D819E810097C6
:1030500069F714C06F81788589859A850E94490037
:10306000DC01CB019E838D838D819E819A83898330
:1030700089819A810197F1F79A83898383E062E0DD
:103080000E945012882319F081E08F8701C01F86AB
:103090008F852F960FB6F894DEBF0FBECDBFCF91B0
:1030A000DF910895DF93CF93CDB7DEB72F970FB69B
:1030B000F894DEBF0FBECDBF0E941A17882309F413
:1030C0007BC072C080E090E0A0E2B1E48B879C8777
:1030D000AD87BE876B857C858D859E8520E030E041
:1030E0004AE755E40E941F02DC01CB018F839887D9
:1030F000A987BA876F81788589859A8520E030E035
:1031000040E85FE30E94790388232CF481E090E09B
:103110009E838D833FC06F81788589859A8520E065
:103120003FEF4FE757E40E94190318164CF56B85E3
:103130007C858D859E8520E030E040E251E40E9450
:103140001F02DC01CB01BC01CD010E944900DC0162
:10315000CB019E838D830FC080E991E09C838B839C
:103160008B819C810197F1F79C838B838D819E815C
:1031700001979E838D838D819E81009769F714C08E
:103180006F81788589859A850E944900DC01CB0191
:103190009E838D838D819E819A83898389819A8183
:1031A0000197F1F79A8389830E941A17882309F0FF
:1031B00089CF81E08F8701C01F868F852F960FB63C
:1031C000F894DEBF0FBECDBFCF91DF910895DF939E
:1031D000CF93CDB7DEB760970FB6F894DEBF0FBEC2
:1031E000CDBF1F8675C080E090E0A0E2B1E48B8780
:1031F0009C87AD87BE876B857C858D859E8520E00D
:1032000030E04AE755E40E941F02DC01CB018F83C6
:103210009887A987BA876F81788589859A8520E004
:1032200030E040E85FE30E94790388232CF481E0DA
:1032300090E09E838D833FC06F81788589859A85D4
:1032400020E03FEF4FE757E40E94190318164CF5B2
:103250006B857C858D859E8520E030E040E251E4E1
:103260000E941F02DC01CB01BC01CD010E9449007C
:10327000DC01CB019E838D830FC080E991E09C83AC
:103280008B838B819C810197F1F79C838B838D814C
:103290009E8101979E838D838D819E81009769F722
:1032A00014C06F81788589859A850E944900DC0168
:1032B000CB019E838D838D819E819A8389838981B1
:1032C0009A810197F1F79A8389838F858F5F8F8722
:1032D0000E94B617882309F086CF8F858E3118F0AB
:1032E00081E0888B01C0188A888960960FB6F894AF
:1032F000DEBF0FBECDBFCF91DF910895DF93CF9397
:10330000CDB7DEB76D970FB6F894DEBF0FBECDBF59
:103310008D8F81E061E040E00E94751181E062E004
:1033200040E00E94751181E063E040E00E94751169
:103330008D8D982F907F80E0692F0E94DB0F81E0B8
:1033400063E041E00E94751180E090E0A0E2B1E40A
:10335000898F9A8FAB8FBC8F698D7A8D8B8D9C8D69
:1033600020E030E04AE755E40E941F02DC01CB0177
:103370008D8B9E8BAF8BB88F6D897E898F89988D51
:1033800020E030E040E85FE30E94790388232CF4DA
:1033900081E090E09C8B8B8B3FC06D897E898F890B
:1033A000988D20E03FEF4FE757E40E94190318166D
:1033B0004CF5698D7A8D8B8D9C8D20E030E040E25C
:1033C00051E40E941F02DC01CB01BC01CD010E942F
:1033D0004900DC01CB019C8B8B8B0FC080E991E015
:1033E0009A8B898B89899A890197F1F79A8B898BB6
:1033F0008B899C8901979C8B8B8B8B899C890097EF
:1034000069F714C06D897E898F89988D0E94490063
:10341000DC01CB019C8B8B8B8B899C89988B8F8754
:103420008F8598890197F1F7988B8F8781E063E00A
:1034300040E00E9475118D8D982F9295907F80E0CD
:10344000692F0E94DB0F81E063E041E00E9475116B
:1034500080E090E0A0E2B1E48B879C87AD87BE87D7
:103460006B857C858D859E8520E030E04AE755E4BC
:103470000E941F02DC01CB018F839887A987BA873E
:103480006F81788589859A8520E030E040E85FE3A8
:103490000E94790388232CF481E090E09E838D8341
:1034A0003FC06F81788589859A8520E03FEF4FE79F
:1034B00057E40E94190318164CF56B857C858D85A1
:1034C0009E8520E030E040E251E40E941F02DC01D2
:1034D000CB01BC01CD010E944900DC01CB019E83E0
:1034E0008D830FC080E991E09C838B838B819C81CD
:1034F0000197F1F79C838B838D819E8101979E8339
:103500008D838D819E81009769F714C06F817885C6
:1035100089859A850E944900DC01CB019E838D83B9
:103520008D819E819A83898389819A810197F1F7A0
:103530009A83898381E063E040E00E9475116D9673
:103540000FB6F894DEBF0FBECDBFCF91DF910895C7
:103550000F931F93DF93CF93CDB7DEB7C654D04000
:103560000FB6F894DEBF0FBECDBF81E061E041E051
:103570000E94721081E063E041E00E94721081E0DD
:1035800062E041E00E94721080E064E041E00E944D
:10359000721080E065E041E00E94721080E066E019
:1035A00041E00E94721080E067E041E00E947210EA
:1035B000FE01ED5BFF4F80E090E0A8E4B2E4808381
:1035C0009183A283B3838E01015C1F4FFE01ED5BEB
:1035D000FF4F608171818281938120E030E04AE772
:1035E00055E40E941F02DC01CB01F8018083918326
:1035F000A283B383FE01FF966081718182819381F2
:1036000020E030E040E85FE30E94790388232CF457
:1036100081E090E09EAF8DAF46C0FE01FF966081D5
:1036200071818281938120E03FEF4FE757E40E9450
:103630001903181664F5FE01ED5BFF4F608171817F
:103640008281938120E030E040E251E40E941F0239
:10365000DC01CB01BC01CD010E944900DC01CB01A2
:103660009EAF8DAF0FC080E991E09CAF8BAF8BAD6B
:103670009CAD0197F1F79CAF8BAF8DAD9EAD0197DF
:103680009EAF8DAF8DAD9EAD009769F716C0FE0160
:10369000FF9660817181828193810E944900DC01E3
:1036A000CB019EAF8DAF8DAD9EAD9AAF89AF89AD89
:1036B0009AAD0197F1F79AAF89AF88E20E947E191F
:1036C00080E090E0A0E0B0E48DAB9EABAFABB8AFD4
:1036D0006DA97EA98FA998AD20E030E04AE755E4B6
:1036E0000E941F02DC01CB0189AB9AABABABBCAB38
:1036F00069A97AA98BA99CA920E030E040E85FE3A2
:103700000E94790388232CF481E090E098AB8FA786
:103710003FC069A97AA98BA99CA920E03FEF4FE798
:1037200057E40E94190318164CF56DA97EA98FA9BC
:1037300098AD20E030E040E251E40E941F02DC013D
:10374000CB01BC01CD010E944900DC01CB0198AB4B
:103750008FA70FC080E991E09EA78DA78DA59EA59C
:103760000197F1F79EA78DA78FA598A9019798AB10
:103770008FA78FA598A9009769F714C069A97AA99E
:103780008BA99CA90E944900DC01CB0198AB8FA7B3
:103790008FA598A99CA78BA78BA59CA50197F1F74E
:1037A0009CA78BA78EE00E947E1980E090E0A0E0AD
:1037B000B0E48FA398A7A9A7BAA76FA178A589A5F8
:1037C0009AA520E030E04AE755E40E941F02DC01A0
:1037D000CB018BA39CA3ADA3BEA36BA17CA18DA1A8
:1037E0009EA120E030E040E85FE30E947903882357
:1037F0002CF481E090E09AA389A33FC06BA17CA147
:103800008DA19EA120E03FEF4FE757E40E941903EE
:1038100018164CF56FA178A589A59AA520E030E08F
:1038200040E251E40E941F02DC01CB01BC01CD014A
:103830000E944900DC01CB019AA389A30FC080E953
:1038400091E098A38F8F8F8D98A10197F1F798A39E
:103850008F8F89A19AA101979AA389A389A19AA17F
:10386000009769F714C06BA17CA18DA19EA10E9455
:103870004900DC01CB019AA389A389A19AA19E8F5B
:103880008D8F8D8D9E8D0197F1F79E8F8D8F81E0AD
:103890000E947E1980E090E0A0E0B0E4898F9A8FCA
:1038A000AB8FBC8F698D7A8D8B8D9C8D20E030E045
:1038B0004AE755E40E941F02DC01CB018D8B9E8BF1
:1038C000AF8BB88F6D897E898F89988D20E030E02D
:1038D00040E85FE30E94790388232CF481E090E0C4
:1038E0009C8B8B8B3FC06D897E898F89988D20E062
:1038F0003FEF4FE757E40E94190318164CF5698D06
:103900007A8D8B8D9C8D20E030E040E251E40E9466
:103910001F02DC01CB01BC01CD010E944900DC018A
:10392000CB019C8B8B8B0FC080E991E09A8B898BAC
:1039300089899A890197F1F79A8B898B8B899C8960
:1039400001979C8B8B8B8B899C89009769F714C09E
:103950006D897E898F89988D0E944900DC01CB0199
:103960009C8B8B8B8B899C89988B8F878F85988973
:103970000197F1F7988B8F8786E00E947E1980E08F
:1039800090E0A0E0B0E48B879C87AD87BE876B8515
:103990007C858D859E8520E030E04AE755E40E94D5
:1039A0001F02DC01CB018F839887A987BA876F81BB
:1039B000788589859A8520E030E040E85FE30E94C1
:1039C000790388232CF481E090E09E838D833FC0AF
:1039D0006F81788589859A8520E03FEF4FE757E42E
:1039E0000E94190318164CF56B857C858D859E8584
:1039F00020E030E040E251E40E941F02DC01CB01F4
:103A0000BC01CD010E944900DC01CB019E838D8366
:103A10000FC080E991E09C838B838B819C8101970F
:103A2000F1F79C838B838D819E8101979E838D838B
:103A30008D819E81009769F714C06F817885898593
:103A40009A850E944900DC01CB019E838D838D8184
:103A50009E819A83898389819A810197F1F79A835C
:103A60008983CA5BDF4F0FB6F894DEBF0FBECDBFB0
:103A7000CF91DF911F910F910895DF93CF93CDB731
:103A8000DEB7E8970FB6F894DEBF0FBECDBF81E07A
:103A900061E041E00E94721081E063E041E00E9439
:103AA000721081E062E041E00E94721080E064E008
:103AB00041E00E94721080E065E041E00E947210D7
:103AC00080E066E041E00E94721080E067E041E043
:103AD0000E94721080E090E0A8E4B2E48DAB9EAB4F
:103AE000AFABB8AF6DA97EA98FA998AD20E030E04B
:103AF0004AE755E40E941F02DC01CB0189AB9AAB77
:103B0000ABABBCAB69A97AA98BA99CA920E030E03A
:103B100040E85FE30E94790388232CF481E090E081
:103B200098AB8FA73FC069A97AA98BA99CA920E06F
:103B30003FEF4FE757E40E94190318164CF56DA9A3
:103B40007EA98FA998AD20E030E040E251E40E94C8
:103B50001F02DC01CB01BC01CD010E944900DC0148
:103B6000CB0198AB8FA70FC080E991E09EA78DA7EE
:103B70008DA59EA50197F1F79EA78DA78FA598A962
:103B8000019798AB8FA78FA598A9009769F714C0E4
:103B900069A97AA98BA99CA90E944900DC01CB01E3
:103BA00098AB8FA78FA598A99CA78BA78BA59CA541
:103BB0000197F1F79CA78BA788E20E947E1980E00D
:103BC00090E0A0E0B0E48FA398A7A9A7BAA76FA13F
:103BD00078A589A59AA520E030E04AE755E40E943F
:103BE0001F02DC01CB018BA39CA3ADA3BEA36BA1E1
:103BF0007CA18DA19EA120E030E040E85FE30E941F
:103C0000790388232CF481E090E09AA389A33FC034
:103C10006BA17CA18DA19EA120E03FEF4FE757E46F
:103C20000E94190318164CF56FA178A589A59AA5CD
:103C300020E030E040E251E40E941F02DC01CB01B1
:103C4000BC01CD010E944900DC01CB019AA389A3EC
:103C50000FC080E991E098A38F8F8F8D98A1019775
:103C6000F1F798A38F8F89A19AA101979AA389A3AD
:103C700089A19AA1009769F714C06BA17CA18DA1BD
:103C80009EA10E944900DC01CB019AA389A389A1CE
:103C90009AA19E8F8D8F8D8D9E8D0197F1F79E8FAE
:103CA0008D8F8EE00E947E1980E090E0A0E0B0E46D
:103CB000898F9A8FAB8FBC8F698D7A8D8B8D9C8D00
:103CC00020E030E04AE755E40E941F02DC01CB010E
:103CD0008D8B9E8BAF8BB88F6D897E898F89988DE8
:103CE00020E030E040E85FE30E94790388232CF471
:103CF00081E090E09C8B8B8B3FC06D897E898F89A2
:103D0000988D20E03FEF4FE757E40E941903181603
:103D10004CF5698D7A8D8B8D9C8D20E030E040E2F2
:103D200051E40E941F02DC01CB01BC01CD010E94C5
:103D30004900DC01CB019C8B8B8B0FC080E991E0AB
:103D40009A8B898B89899A890197F1F79A8B898B4C
:103D50008B899C8901979C8B8B8B8B899C89009785
:103D600069F714C06D897E898F89988D0E944900FA
:103D7000DC01CB019C8B8B8B8B899C89988B8F87EB
:103D80008F8598890197F1F7988B8F8786E00E943D
:103D90007E1980E090E0A0E0B0E48B879C87AD873F
:103DA000BE876B857C858D859E8520E030E04AE767
:103DB00055E40E941F02DC01CB018F839887A987FD
:103DC000BA876F81788589859A8520E030E040E860
:103DD0005FE30E94790388232CF481E090E09E83C6
:103DE0008D833FC06F81788589859A8520E03FEF7C
:103DF0004FE757E40E94190318164CF56B857C8534
:103E00008D859E8520E030E040E251E40E941F0253
:103E1000DC01CB01BC01CD010E944900DC01CB01DA
:103E20009E838D830FC080E991E09C838B838B817F
:103E30009C810197F1F79C838B838D819E810197F3
:103E40009E838D838D819E81009769F714C06F8159
:103E5000788589859A850E944900DC01CB019E8383
:103E60008D838D819E819A83898389819A8101972F
:103E7000F1F79A838983E8960FB6F894DEBF0FBEF8
:103E8000CDBFCF91DF910895DF93CF93CDB7DEB74C
:103E90006D970FB6F894DEBF0FBECDBF8D8F81E05A
:103EA00061E041E00E94751181E062E040E00E9423
:103EB000751181E063E040E00E9475118D8D982FAF
:103EC000907F80E0692F0E94DB0F81E063E041E09A
:103ED0000E94751180E090E0A0E2B1E4898F9A8F92
:103EE000AB8FBC8F698D7A8D8B8D9C8D20E030E0FF
:103EF0004AE755E40E941F02DC01CB018D8B9E8BAB
:103F0000AF8BB88F6D897E898F89988D20E030E0E6
:103F100040E85FE30E94790388232CF481E090E07D
:103F20009C8B8B8B3FC06D897E898F89988D20E01B
:103F30003FEF4FE757E40E94190318164CF5698DBF
:103F40007A8D8B8D9C8D20E030E040E251E40E9420
:103F50001F02DC01CB01BC01CD010E944900DC0144
:103F6000CB019C8B8B8B0FC080E991E09A8B898B66
:103F700089899A890197F1F79A8B898B8B899C891A
:103F800001979C8B8B8B8B899C89009769F714C058
:103F90006D897E898F89988D0E944900DC01CB0153
:103FA0009C8B8B8B8B899C89988B8F878F8598892D
:103FB0000197F1F7988B8F8781E063E040E00E94E2
:103FC00075118D8D982F9295907F80E0692F0E94BA
:103FD000DB0F81E063E041E00E94751180E090E03A
:103FE000A0E2B1E48B879C87AD87BE876B857C851B
:103FF0008D859E8520E030E04AE755E40E941F024F
:10400000DC01CB018F839887A987BA876F81788578
:1040100089859A8520E030E040E85FE30E947903DB
:1040200088232CF481E090E09E838D833FC06F81D4
:10403000788589859A8520E03FEF4FE757E40E9415
:10404000190318164CF56B857C858D859E8520E0BF
:1040500030E040E251E40E941F02DC01CB01BC01D0
:10406000CD010E944900DC01CB019E838D830FC0EE
:1040700080E991E09C838B838B819C810197F1F790
:104080009C838B838D819E8101979E838D838D81FF
:104090009E81009769F714C06F81788589859A851C
:1040A0000E944900DC01CB019E838D838D819E811E
:1040B0009A83898389819A810197F1F79A83898309
:1040C00081E063E040E00E9475116D960FB6F894B0
:1040D000DEBF0FBECDBFCF91DF910895DF93CF93A9
:1040E00000D0CDB7DEB789836A8389819A81892B15
:1040F0000E947E190F900F90CF91DF910895DF936A
:10410000CF93CDB7DEB72E970FB6F894DEBF0FBEB4
:10411000CDBF81E00E947E1980E090E0A0E0B0E495
:104120008B879C87AD87BE876B857C858D859E85BB
:1041300020E030E04AE755E40E941F02DC01CB0199
:104140008F839887A987BA876F81788589859A85B3
:1041500020E030E040E85FE30E94790388232CF4FC
:1041600081E090E09E838D833FC06F817885898553
:104170009A8520E03FEF4FE757E40E941903181695
:104180004CF56B857C858D859E8520E030E040E296
:1041900051E40E941F02DC01CB01BC01CD010E9451
:1041A0004900DC01CB019E838D830FC080E991E043
:1041B0009C838B838B819C810197F1F79C838B83FC
:1041C0008D819E8101979E838D838D819E81009735
:1041D00069F714C06F81788589859A850E944900A6
:1041E000DC01CB019E838D838D819E819A8389839F
:1041F00089819A810197F1F79A8389832E960FB668
:10420000F894DEBF0FBECDBFCF91DF910895DF934D
:10421000CF9300D00F92CDB7DEB79B838A831982EC
:104220000EC08981282F30E08A819B81FC01E20F3A
:10423000F31F80810E94441F89818F5F8983898158
:10424000282F30E08A819B81FC01E20FF31F8081DF
:10425000882339F70F900F900F90CF91DF91089539
:10426000DF93CF9300D000D0CDB7DEB79B838A8396
:104270006C838C81882F90E00896880F991F880F97
:10428000991F880F991F0E947E1919820EC089817B
:10429000282F30E08A819B81FC01E20FF31F80818F
:1042A0000E94441F89818F5F89838981883078F3D8
:1042B0000F900F900F900F90CF91DF910895DF93A3
:1042C000CF93CDB7DEB72A970FB6F894DEBF0FBEF7
:1042D000CDBF89876A8788E0FE013196DF01982F7C
:1042E0001D929A95E9F7CE01019661E00E94302176
:1042F00089856A850E946E2081E00E94441F2A966B
:104300000FB6F894DEBF0FBECDBFCF91DF910895F9
:10431000DF93CF93CDB7DEB781E06FE00E94AD0FA2
:1043200081E06FEF0E94DB0FCF91DF910895DF9363
:10433000CF93CDB7DEB765970FB6F894DEBF0FBE4B
:10434000CDBF83E0898B89E08F871B8AB7C081E06E
:104350006B8940E00E94751183E08A8B84E08C8B2E
:104360009EC081E06C890E945012888B88898823C6
:1043700009F08FC080E090E0A8ECB1E48B879C87C7
:10438000AD87BE876B857C858D859E8520E030E07E
:104390004AE755E40E941F02DC01CB018F83988716
:1043A000A987BA876F81788589859A8520E030E072
:1043B00040E85FE30E94790388232CF481E090E0D9
:1043C0009E838D833FC06F81788589859A8520E0A3
:1043D0003FEF4FE757E40E94190318164CF56B8521
:1043E0007C858D859E8520E030E040E251E40E948E
:1043F0001F02DC01CB01BC01CD010E944900DC01A0
:10440000CB019E838D830FC080E991E09C838B83D9
:104410008B819C810197F1F79C838B838D819E8199
:1044200001979E838D838D819E81009769F714C0CB
:104430006F81788589859A850E944900DC01CB01CE
:104440009E838D838D819E819A83898389819A81C0
:104450000197F1F79A83898381E06C890E94501259
:10446000888B88898823A9F48A89482F50E0898914
:10447000282F30E0CA01880F991F880F991F820FDB
:10448000931FFC01E355FF4F80818F878F858D8BB4
:104490001BC08A8981508A8B8C898F5F8C8B8C8919
:1044A000883008F45ECF89898150898B81E06B89DF
:1044B00041E00E9475118B898F5F8B8B8B898430D3
:1044C00008F445CF8FEF8D8B8D8965960FB6F894E4
:1044D000DEBF0FBECDBFCF91DF910895DF93CF93A5
:1044E000CDB7DEB7A1E3B0E0E1E3F0E08081806228
:1044F0008C93A4E3B0E0E4E3F0E0808180628C93ED
:10450000A4E3B0E0E4E3F0E0808180648C93A1E375
:10451000B0E0E1E3F0E0808180618C93A4E3B0E05F
:10452000E4E3F0E0808188608C93A4E3B0E0E4E30E
:10453000F0E0808180618C93CF91DF910895DF93CB
:10454000CF93CDB7DEB7A2E3B0E0E2E3F0E0808145
:1045500080628C93A5E3B0E0E5E3F0E080818F7D9D
:104560008C93A5E3B0E0E5E3F0E080818F7B8C9352
:10457000CF91DF910895DF93CF93CDB7DEB7A2E35C
:10458000B0E0E2E3F0E0808180628C93A5E3B0E0EC
:10459000E5E3F0E0808180628C93A5E3B0E0E5E3A1
:1045A000F0E0808180648C93CF91DF910895DF9358
:1045B000CF93CDB7DEB7A2E3B0E0E2E3F0E08081D5
:1045C0008F7D8C93CF91DF910895DF93CF93CDB7FB
:1045D000DEB7A2E3B0E0E2E3F0E0808180618C939B
:1045E000A5E3B0E0E5E3F0E08081877F8C93A5E36D
:1045F000B0E0E5E3F0E0808180618C93CF91DF91C2
:104600000895DF93CF93CDB7DEB7A2E3B0E0E2E346
:10461000F0E0808180618C93A5E3B0E0E5E3F0E019
:10462000808188608C93A5E3B0E0E5E3F0E08081D1
:104630008F7E8C93CF91DF910895DF93CF93CDB789
:10464000DEB7A2E3B0E0E2E3F0E080818F7E8C93FE
:10465000CF91DF910895DF93CF93CDB7DEB7A097C9
:104660000FB6F894DEBF0FBECDBF8F8F68A30E9438
:10467000DD151E8E1D8EEFC08F8D0E945C1680E0B2
:1046800090E0A0E8BFE3898F9A8FAB8FBC8F698DD4
:104690007A8D8B8D9C8D20E030E04AE755E40E94B6
:1046A0001F02DC01CB018D8B9E8BAF8BB88F6D8988
:1046B0007E898F89988D20E030E040E85FE30E949A
:1046C000790388232CF481E090E09C8B8B8B3FC096
:1046D0006D897E898F89988D20E03FEF4FE757E401
:1046E0000E94190318164CF5698D7A8D8B8D9C8D5F
:1046F00020E030E040E251E40E941F02DC01CB01E7
:10470000BC01CD010E944900DC01CB019C8B8B8B4D
:104710000FC080E991E09A8B898B89899A890197EA
:10472000F1F79A8B898B8B899C8901979C8B8B8B5A
:104730008B899C89009769F714C06D897E898F8960
:10474000988D0E944900DC01CB019C8B8B8B8B895F
:104750009C89988B8F878F8598890197F1F7988B23
:104760008F8788A10E946D1680E090E0A0E8BFE3EB
:104770008B879C87AD87BE876B857C858D859E8565
:1047800020E030E04AE755E40E941F02DC01CB0143
:104790008F839887A987BA876F81788589859A855D
:1047A00020E030E040E85FE30E94790388232CF4A6
:1047B00081E090E09E838D833FC06F8178858985FD
:1047C0009A8520E03FEF4FE757E40E94190318163F
:1047D0004CF56B857C858D859E8520E030E040E240
:1047E00051E40E941F02DC01CB01BC01CD010E94FB
:1047F0004900DC01CB019E838D830FC080E991E0ED
:104800009C838B838B819C810197F1F79C838B83A5
:104810008D819E8101979E838D838D819E810097DE
:1048200069F714C06F81788589859A850E9449004F
:10483000DC01CB019E838D838D819E819A83898348
:1048400089819A810197F1F79A8389838D8D9E8D55
:1048500001969E8F8D8F8D8D9E8D8436910508F4E7
:104860000BCFA0960FB6F894DEBF0FBECDBFCF9191
:10487000DF910895DF93CF930F92CDB7DEB7898391
:1048800089819AE0692F0E94CA35282F89819AE090
:10489000692F0E94CA35892F982F822F692F0E9475
:1048A0002B230F90CF91DF910895DF93CF9300D00A
:1048B00000D000D0CDB7DEB76B837C838D839E8321
:1048C00081E063E041E00E9472106B817C818D8108
:1048D0009E8120E030E040E251E40E941F02DC01B2
:1048E000CB01BC01CD010E944900DC01CB019A83C0
:1048F00089830E94321689819A812AE030E0B901C9
:104900000E94D635CB01482F89819A812AE030E078
:10491000B9010E94D635982F842F692F0E942B232E
:104920000E943E1626960FB6F894DEBF0FBECDBF8E
:10493000CF91DF910895DF93CF9300D0CDB7DEB74D
:104940001A820FC0198207C08A8169810E942B23B5
:1049500089818F5F898389818A30B0F38A818F5FF3
:104960008A838A818A3070F30F900F90CF91DF9104
:104970000895DF93CF9300D0CDB7DEB71A820EC073
:10498000198206C08A810E943A2489818F5F8983B7
:1049900089818430B8F38A818F5F8A838A818D33DD
:1049A00078F30F900F90CF91DF910895DF93CF931D
:1049B0000F92CDB7DEB7198222C00E941A17882342
:1049C00051F089818F5F898389810E943A2489818E
:1049D0000E943A2414C00E94B617882369F0898186
:1049E000882351F089818150898389810E943A24EA
:1049F00089810E943A2403C089810E943A248981D6
:104A00008436D8F20F90CF91DF910895DF93CF9342
:104A1000CDB7DEB76C970FB6F894DEBF0FBECDBF33
:104A20000E94B9240E9457140E94B9240E94741451
:104A30000E94B9240E94911480E090E0AAE7B3E4B8
:104A4000898F9A8FAB8FBC8F698D7A8D8B8D9C8D62
:104A500020E030E04AE755E40E941F02DC01CB0170
:104A60008D8B9E8BAF8BB88F6D897E898F89988D4A
:104A700020E030E040E85FE30E94790388232CF4D3
:104A800081E090E09C8B8B8B3FC06D897E898F8904
:104A9000988D20E03FEF4FE757E40E941903181666
:104AA0004CF5698D7A8D8B8D9C8D20E030E040E255
:104AB00051E40E941F02DC01CB01BC01CD010E9428
:104AC0004900DC01CB019C8B8B8B0FC080E991E00E
:104AD0009A8B898B89899A890197F1F79A8B898BAF
:104AE0008B899C8901979C8B8B8B8B899C890097E8
:104AF00069F714C06D897E898F89988D0E9449005D
:104B0000DC01CB019C8B8B8B8B899C89988B8F874D
:104B10008F8598890197F1F7988B8F8780E090E0D7
:104B2000AAE7B3E48B879C87AD87BE876B857C85BE
:104B30008D859E8520E030E04AE755E40E941F0203
:104B4000DC01CB018F839887A987BA876F8178852D
:104B500089859A8520E030E040E85FE30E94790390
:104B600088232CF481E090E09E838D833FC06F8189
:104B7000788589859A8520E03FEF4FE757E40E94CA
:104B8000190318164CF56B857C858D859E8520E074
:104B900030E040E251E40E941F02DC01CB01BC0185
:104BA000CD010E944900DC01CB019E838D830FC0A3
:104BB00080E991E09C838B838B819C810197F1F745
:104BC0009C838B838D819E8101979E838D838D81B4
:104BD0009E81009769F714C06F81788589859A85D1
:104BE0000E944900DC01CB019E838D838D819E81D3
:104BF0009A83898389819A810197F1F79A838983BE
:104C00000E9468140E9485140E94A2146C960FB62C
:104C1000F894DEBF0FBECDBFCF91DF910895DF9333
:104C2000CF93CDB7DEB783E00E94CB14CF91DF9155
:104C30000895DF93CF93CDB7DEB7A0970FB6F89462
:104C4000DEBF0FBECDBF9F8F8E8F68A30E94A81AB4
:104C50001D8E91C088A1882F90E09C01215030408A
:104C60008D8D882F90E0AC01249FC001259F900D71
:104C7000349F900D1124982F80E8692F0E946E2098
:104C80008E8D9F8D0E94072180E090E0AAE7B3E41B
:104C9000898F9A8FAB8FBC8F698D7A8D8B8D9C8D10
:104CA00020E030E04AE755E40E941F02DC01CB011E
:104CB0008D8B9E8BAF8BB88F6D897E898F89988DF8
:104CC00020E030E040E85FE30E94790388232CF481
:104CD00081E090E09C8B8B8B3FC06D897E898F89B2
:104CE000988D20E03FEF4FE757E40E941903181614
:104CF0004CF5698D7A8D8B8D9C8D20E030E040E203
:104D000051E40E941F02DC01CB01BC01CD010E94D5
:104D10004900DC01CB019C8B8B8B0FC080E991E0BB
:104D20009A8B898B89899A890197F1F79A8B898B5C
:104D30008B899C8901979C8B8B8B8B899C89009795
:104D400069F714C06D897E898F89988D0E9449000A
:104D5000DC01CB019C8B8B8B8B899C89988B8F87FB
:104D60008F8598890197F1F7988B8F870E947F2014
:104D70008D8D8F5F8D8F8D8DE82FF0E088A1282F8E
:104D800030E080E190E0B9010E94EA35CB018E1756
:104D90009F070CF05FCF1D8E91C088A1882F90E0F7
:104DA0009C01215030408D8D882F90E0AC01249FD4
:104DB000C001259F900D349F900D1124982F80ECF9
:104DC000692F0E946E208E8D9F8D0E94072180E0AA
:104DD00090E0AAE7B3E48B879C87AD87BE876B859D
:104DE0007C858D859E8520E030E04AE755E40E9471
:104DF0001F02DC01CB018F839887A987BA876F8157
:104E0000788589859A8520E030E040E85FE30E945C
:104E1000790388232CF481E090E09E838D833FC04A
:104E20006F81788589859A8520E03FEF4FE757E4C9
:104E30000E94190318164CF56B857C858D859E851F
:104E400020E030E040E251E40E941F02DC01CB018F
:104E5000BC01CD010E944900DC01CB019E838D8302
:104E60000FC080E991E09C838B838B819C810197AB
:104E7000F1F79C838B838D819E8101979E838D8327
:104E80008D819E81009769F714C06F81788589852F
:104E90009A850E944900DC01CB019E838D838D8120
:104EA0009E819A83898389819A810197F1F79A83F8
:104EB00089830E947F208D8D8F5F8D8F8D8DE82F50
:104EC000F0E088A1282F30E080E190E0B9010E9455
:104ED000EA35CB018E179F070CF05FCFA0960FB677
:104EE000F894DEBF0FBECDBFCF91DF910895DF9361
:104EF000CF93CDB7DEB72A970FB6F894DEBF0FBEBB
:104F0000CDBF98878F837A8769871D8289859A8527
:104F10009C838B830DC08D818F5F8D838B819C8162
:104F20002AE030E0B9010E94D635CB019C838B8307
:104F30008B819C81009779F71E8229C089859A858B
:104F40002AE030E0B9010E94D6359A8389838985A9
:104F50009A852AE030E0B9010E94D635CB019A87C4
:104F600089878D81282F30E08E81882F90E0809571
:104F70009095820F931F9C018F819885FC01E20F11
:104F8000F31F8981805D80838E818F5F8E839E81F8
:104F90008D81981798F28D81282F30E08F81988528
:104FA000FC01E20FF31F10822A960FB6F894DEBFC1
:104FB0000FBECDBFCF91DF9108950F931F93DF9365
:104FC000CF93CDB7DEB7C857D0400FB6F894DEBF49
:104FD0000FBECDBFFE01EB58FF4F10820E9488210B
:104FE0000E949721FE01EB58FF4F8083FE01E35999
:104FF000FF4F80E090E0A8E4B2E480839183A28335
:10500000B3838E0107591F4FFE01E359FF4F6081A3
:1050100071818281938120E030E04AE755E40E946B
:105020001F02DC01CB01F80180839183A283B3834B
:10503000FE01E759FF4F608171818281938120E0F9
:1050400030E040E85FE30E947903882344F4FE01E6
:10505000E959FF4F81E090E09183808364C0FE01B5
:10506000E759FF4F608171818281938120E03FEF9A
:105070004FE757E40E94190318160CF043C0FE01D5
:10508000E359FF4F608171818281938120E030E09C
:1050900040E251E40E941F02DC01CB018E0109595C
:1050A0001F4FBC01CD010E944900DC01CB01F8017A
:1050B000918380831FC0FE01EB59FF4F80E991E08F
:1050C00091838083FE01EB59FF4F8081918101978D
:1050D000F1F7FE01EB59FF4F91838083DE01A9595F
:1050E000BF4FFE01E959FF4F8081918101971196D1
:1050F0009C938E93FE01E959FF4F80819181009727
:10510000D1F628C08E0109591F4FFE01E759FF4F04
:1051100060817181828193810E944900DC01CB0111
:10512000F80191838083DE01AD59BF4FFE01E9593B
:10513000FF4F8081918111969C938E93FE01ED59D2
:10514000FF4F808191810197F1F7FE01ED59FF4FEB
:1051500091838083FE01EB58FF4F80818F3F09F4DC
:105160003FCF0E94A81AFE01EB58FF4F8081805D5F
:105170000E94441FFE01E15AFF4F80E090E0A8E446
:10518000B2E480839183A283B3838E01055A1F4FBB
:10519000FE01E15AFF4F608171818281938120E09D
:1051A00030E04AE755E40E941F02DC01CB01F80120
:1051B00080839183A283B383FE01E55AFF4F608110
:1051C00071818281938120E030E040E85FE30E94BA
:1051D0007903882344F4FE01E75AFF4F81E090E011
:1051E0009183808364C0FE01E55AFF4F6081718125
:1051F0008281938120E03FEF4FE757E40E9419033B
:1052000018160CF043C0FE01E15AFF4F6081718116
:105210008281938120E030E040E251E40E941F024D
:10522000DC01CB018E01075A1F4FBC01CD010E944A
:105230004900DC01CB01F801918380831FC0FE018E
:10524000E95AFF4F80E991E091838083FE01E95A9A
:10525000FF4F808191810197F1F7FE01E95AFF4FDD
:1052600091838083DE01A75ABF4FFE01E75AFF4FAB
:1052700080819181019711969C938E93FE01E75A4C
:10528000FF4F808191810097D1F627C08E01075A88
:105290001F4FFE01E55AFF4F60817181828193812A
:1052A0000E944900DC01CB01F80191838083DE017B
:1052B000AB5ABF4FFE01E75AFF4F808191818D931A
:1052C0009C93FE01EB5AFF4F808191810197F1F78A
:1052D000FE01EB5AFF4F918380830E9488210E9438
:1052E0009721FE01ED58FF4F8083FE01EF5AFF4FDB
:1052F00080E090E0A8E4B2E480839183A283B3834A
:105300008E01035B1F4FFE01EF5AFF4F60817181D9
:105310008281938120E030E04AE755E40E941F0239
:10532000DC01CB01F80180839183A283B383FE016A
:10533000E35BFF4F608171818281938120E030E0E7
:1053400040E85FE30E947903882344F4FE01E55BB3
:10535000FF4F81E090E09183808364C0FE01E35BB6
:10536000FF4F608171818281938120E03FEF4FE7A1
:1053700057E40E94190318160CF043C0FE01EF5ABF
:10538000FF4F608171818281938120E030E040E2B3
:1053900051E40E941F02DC01CB018E01055B1F4F0F
:1053A000BC01CD010E944900DC01CB01F8019183D1
:1053B00080831FC0FE01E75BFF4F80E991E091838E
:1053C0008083FE01E75BFF4F808191810197F1F7B8
:1053D000FE01E75BFF4F91838083DE01A55BBF4F3A
:1053E000FE01E55BFF4F80819181019711969C93AF
:1053F0008E93FE01E55BFF4F808191810097D1F68E
:1054000028C08E01055B1F4FFE01E35BFF4F6081EB
:105410007181828193810E944900DC01CB01F801F6
:1054200091838083DE01A95BBF4FFE01E55BFF4FE7
:105430008081918111969C938E93FE01E95BFF4FD1
:10544000808191810197F1F7FE01E95BFF4F918324
:105450008083FE01ED58FF4F80818F32C9F0FE013D
:10546000ED58FF4F80818A3299F0FE01ED58FF4FD1
:1054700080818D3269F0FE01ED58FF4F80818B32C3
:1054800039F0FE01ED58FF4F8081853209F027CFBA
:105490000E943D1D80E861E00E946E20FE01ED58F3
:1054A000FF4F80810E94441FFE01ED5BFF4F80E0B3
:1054B00090E0A8E4B2E480839183A283B3838E0159
:1054C000015C1F4FFE01ED5BFF4F608171818281A6
:1054D000938120E030E04AE755E40E941F02DC019E
:1054E000CB01F80180839183A283B383FE01FF96F1
:1054F000608171818281938120E030E040E85FE348
:105500000E94790388232CF481E090E09EAF8DAF58
:1055100046C0FE01FF96608171818281938120E007
:105520003FEF4FE757E40E941903181664F5FE0198
:10553000ED5BFF4F608171818281938120E030E0DB
:1055400040E251E40E941F02DC01CB01BC01CD010D
:105550000E944900DC01CB019EAF8DAF0FC080E9F6
:1055600091E09CAF8BAF8BAD9CAD0197F1F79CAFF9
:105570008BAF8DAD9EAD01979EAF8DAF8DAD9EADC6
:10558000009769F716C0FE01FF96608171818281E4
:1055900093810E944900DC01CB019EAF8DAF8DADA0
:1055A0009EAD9AAF89AF89AD9AAD0197F1F79AAFE9
:1055B00089AF0E9488210E949721FE01EC58FF4F7D
:1055C000808380E090E0A8E4B2E48DAB9EABAFAB0B
:1055D000B8AF6DA97EA98FA998AD20E030E04AE769
:1055E00055E40E941F02DC01CB0189AB9AABABAB47
:1055F000BCAB69A97AA98BA99CA920E030E040E85E
:105600005FE30E94790388232CF481E090E098AB5B
:105610008FA73FC069A97AA98BA99CA920E03FEF79
:105620004FE757E40E94190318164CF56DA97EA99F
:105630008FA998AD20E030E040E251E40E941F02C3
:10564000DC01CB01BC01CD010E944900DC01CB0192
:1056500098AB8FA70FC080E991E09EA78DA78DA57D
:105660009EA50197F1F79EA78DA78FA598A90197F1
:1056700098AB8FA78FA598A9009769F714C069A95F
:105680007AA98BA99CA90E944900DC01CB0198ABA7
:105690008FA78FA598A99CA78BA78BA59CA50197E1
:1056A000F1F79CA78BA7FE01EC58FF4F80818F3F3D
:1056B00009F481CF0E943D1D80E862E00E946E20C7
:1056C000FE01EC58FF4F8081805D0E94441F80E006
:1056D00090E0A8E4B2E48FA398A7A9A7BAA76FA106
:1056E00078A589A59AA520E030E04AE755E40E9414
:1056F0001F02DC01CB018BA39CA3ADA3BEA36BA1B6
:105700007CA18DA19EA120E030E040E85FE30E94F3
:10571000790388232CF481E090E09AA389A33FC009
:105720006BA17CA18DA19EA120E03FEF4FE757E444
:105730000E94190318164CF56FA178A589A59AA5A2
:1057400020E030E040E251E40E941F02DC01CB0186
:10575000BC01CD010E944900DC01CB019AA389A3C1
:105760000FC080E991E098A38F8F8F8D98A101974A
:10577000F1F798A38F8F89A19AA101979AA389A382
:1057800089A19AA1009769F714C06BA17CA18DA192
:105790009EA10E944900DC01CB019AA389A389A1A3
:1057A0009AA19E8F8D8F8D8D9E8D0197F1F79E8F83
:1057B0008D8F0E9488210E949721FE01EE58FF4F95
:1057C000808380E090E0A8E4B2E4898F9A8FAB8F69
:1057D000BC8F698D7A8D8B8D9C8D20E030E04AE7FF
:1057E00055E40E941F02DC01CB018D8B9E8BAF8B99
:1057F000B88F6D897E898F89988D20E030E040E8F0
:105800005FE30E94790388232CF481E090E09C8B75
:105810008B8B3FC06D897E898F89988D20E03FEF0B
:105820004FE757E40E94190318164CF5698D7A8DDD
:105830008B8D9C8D20E030E040E251E40E941F02FD
:10584000DC01CB01BC01CD010E944900DC01CB0190
:105850009C8B8B8B0FC080E991E09A8B898B898917
:105860009A890197F1F79A8B898B8B899C8901978B
:105870009C8B8B8B8B899C89009769F714C06D89F1
:105880007E898F89988D0E944900DC01CB019C8B19
:105890008B8B8B899C89988B8F878F8598890197B3
:1058A000F1F7988B8F87FE01EE58FF4F80818D3383
:1058B00009F081CF0E943D1D80E863E00E946E20C8
:1058C000FE01EE58FF4F80810E94441FFE01ED58FB
:1058D000FF4F80818B3279F49E012F583F4FFE019C
:1058E000EB58FF4FDE01AC58BF4F90818C91890F70
:1058F000F90180835CC0FE01ED58FF4F80818D323D
:1059000089F49E012F583F4FFE01EB58FF4FDE01F7
:10591000AC58BF4F90818C91F92FF81B8F2FF90154
:10592000808345C0FE01ED58FF4F80818F3289F49E
:105930009E012F583F4FFE01EB58FF4FDE01AC5840
:10594000BF4F80819C91692F0E94CA35F9018083E5
:105950002EC0FE01ED58FF4F80818A3289F49E01EE
:105960002F583F4FFE01EB58FF4FDE01AC58BF4FA1
:1059700090818C91989F802D1124F901808317C00C
:10598000FE01ED58FF4F8081853289F49E012F582A
:105990003F4FFE01EB58FF4FDE01AC58BF4F8081F7
:1059A0009C91692F0E94CA35892FF90180830E943A
:1059B0003D1D80E864E00E946E20FE01EF58FF4F1D
:1059C0008081282F30E0CE018A589F4FB9010E9474
:1059D0007727CE018A589F4F0E94072180E090E0F0
:1059E000A8ECB2E48B879C87AD87BE876B857C85EE
:1059F0008D859E8520E030E04AE755E40E941F0235
:105A0000DC01CB018F839887A987BA876F8178855E
:105A100089859A8520E030E040E85FE30E947903C1
:105A200088232CF481E090E09E838D833FC06F81BA
:105A3000788589859A8520E03FEF4FE757E40E94FB
:105A4000190318164CF56B857C858D859E8520E0A5
:105A500030E040E251E40E941F02DC01CB01BC01B6
:105A6000CD010E944900DC01CB019E838D830FC0D4
:105A700080E991E09C838B838B819C810197F1F776
:105A80009C838B838D819E8101979E838D838D81E5
:105A90009E81009769F714C06F81788589859A8502
:105AA0000E944900DC01CB019E838D838D819E8104
:105AB0009A83898389819A810197F1F79A838983EF
:105AC000C858DF4F0FB6F894DEBF0FBECDBFCF91E1
:105AD000DF911F910F9108950F931F93DF93CF9341
